{
  "contractName": "Stacking",
  "abi": [
    {
      "inputs": [
        {
          "internalType": "contract FCToken",
          "name": "_instanceFC",
          "type": "address"
        },
        {
          "internalType": "address",
          "name": "_addressCrowdsale",
          "type": "address"
        }
      ],
      "stateMutability": "nonpayable",
      "type": "constructor"
    },
    {
      "anonymous": false,
      "inputs": [
        {
          "indexed": false,
          "internalType": "address",
          "name": "stacker",
          "type": "address"
        },
        {
          "indexed": false,
          "internalType": "uint256",
          "name": "amount",
          "type": "uint256"
        }
      ],
      "name": "claiming",
      "type": "event"
    },
    {
      "anonymous": false,
      "inputs": [
        {
          "indexed": false,
          "internalType": "address",
          "name": "stacker",
          "type": "address"
        },
        {
          "indexed": false,
          "internalType": "address",
          "name": "tokenAddress",
          "type": "address"
        },
        {
          "indexed": false,
          "internalType": "uint256",
          "name": "amount",
          "type": "uint256"
        }
      ],
      "name": "locking",
      "type": "event"
    },
    {
      "anonymous": false,
      "inputs": [
        {
          "indexed": false,
          "internalType": "address",
          "name": "stacker",
          "type": "address"
        },
        {
          "indexed": false,
          "internalType": "address",
          "name": "tokenAddress",
          "type": "address"
        },
        {
          "indexed": false,
          "internalType": "uint256",
          "name": "amount",
          "type": "uint256"
        }
      ],
      "name": "unlocking",
      "type": "event"
    },
    {
      "inputs": [
        {
          "internalType": "address",
          "name": "_tokenAddress",
          "type": "address"
        },
        {
          "internalType": "uint256",
          "name": "_amount",
          "type": "uint256"
        }
      ],
      "name": "locked",
      "outputs": [],
      "stateMutability": "nonpayable",
      "type": "function"
    },
    {
      "inputs": [
        {
          "internalType": "address",
          "name": "_tokenAddress",
          "type": "address"
        },
        {
          "internalType": "uint256",
          "name": "_amount",
          "type": "uint256"
        }
      ],
      "name": "unlocked",
      "outputs": [],
      "stateMutability": "nonpayable",
      "type": "function"
    },
    {
      "inputs": [
        {
          "internalType": "uint256",
          "name": "_amount",
          "type": "uint256"
        },
        {
          "internalType": "address",
          "name": "_tokenAddress",
          "type": "address"
        }
      ],
      "name": "claimed",
      "outputs": [],
      "stateMutability": "nonpayable",
      "type": "function"
    }
  ],
  "bytecode": "0x60806040523480156200001157600080fd5b50604051620018b8380380620018b8833981810160405281019062000037919062000178565b600160008190555081600460006101000a81548173ffffffffffffffffffffffffffffffffffffffff021916908373ffffffffffffffffffffffffffffffffffffffff16021790555080600360006101000a81548173ffffffffffffffffffffffffffffffffffffffff021916908373ffffffffffffffffffffffffffffffffffffffff1602179055505050620001bf565b600080fd5b600073ffffffffffffffffffffffffffffffffffffffff82169050919050565b6000620000fb82620000ce565b9050919050565b60006200010f82620000ee565b9050919050565b620001218162000102565b81146200012d57600080fd5b50565b600081519050620001418162000116565b92915050565b6200015281620000ee565b81146200015e57600080fd5b50565b600081519050620001728162000147565b92915050565b60008060408385031215620001925762000191620000c9565b5b6000620001a28582860162000130565b9250506020620001b58582860162000161565b9150509250929050565b6116e980620001cf6000396000f3fe608060405234801561001057600080fd5b50600436106100415760003560e01c8063120aa8771461004657806325dd82a914610062578063bf7bab731461007e575b600080fd5b610060600480360381019061005b9190610f97565b61009a565b005b61007c60048036038101906100779190610fd7565b61042c565b005b61009860048036038101906100939190610fd7565b610938565b005b600260005414156100e0576040517f08c379a00000000000000000000000000000000000000000000000000000000081526004016100d790611074565b60405180910390fd5b60026000819055506000600160003373ffffffffffffffffffffffffffffffffffffffff1673ffffffffffffffffffffffffffffffffffffffff16815260200190815260200160002060008373ffffffffffffffffffffffffffffffffffffffff1673ffffffffffffffffffffffffffffffffffffffff1681526020019081526020016000206040518060800160405290816000820154815260200160018201548152602001600282015481526020016003820160009054906101000a900460ff16151515158152505090506101cb6101b882610e35565b8260400151610ea990919063ffffffff16565b816040018181525050428160200181815250508281604001511015610225576040517f08c379a000000000000000000000000000000000000000000000000000000000815260040161021c90611106565b60405180910390fd5b600460009054906101000a900473ffffffffffffffffffffffffffffffffffffffff1673ffffffffffffffffffffffffffffffffffffffff1663a9059cbb3383604001516040518363ffffffff1660e01b8152600401610286929190611144565b6020604051808303816000875af11580156102a5573d6000803e3d6000fd5b505050506040513d601f19601f820116820180604052508101906102c991906111a5565b610308576040517f08c379a00000000000000000000000000000000000000000000000000000000081526004016102ff90611244565b60405180910390fd5b61031f838260400151610ebf90919063ffffffff16565b81604001818152505080600160003373ffffffffffffffffffffffffffffffffffffffff1673ffffffffffffffffffffffffffffffffffffffff16815260200190815260200160002060008473ffffffffffffffffffffffffffffffffffffffff1673ffffffffffffffffffffffffffffffffffffffff16815260200190815260200160002060008201518160000155602082015181600101556040820151816002015560608201518160030160006101000a81548160ff0219169083151502179055509050507f685f623691df1362fb1363921fcaae4cf9f0a6a210a65198360b29164397375c3384604051610417929190611144565b60405180910390a15060016000819055505050565b60026000541415610472576040517f08c379a000000000000000000000000000000000000000000000000000000000815260040161046990611074565b60405180910390fd5b6002600081905550600082905060008173ffffffffffffffffffffffffffffffffffffffff166370a08231306040518263ffffffff1660e01b81526004016104ba9190611264565b602060405180830381865afa1580156104d7573d6000803e3d6000fd5b505050506040513d601f19601f820116820180604052508101906104fb9190611294565b90506000600160003373ffffffffffffffffffffffffffffffffffffffff1673ffffffffffffffffffffffffffffffffffffffff16815260200190815260200160002060008673ffffffffffffffffffffffffffffffffffffffff1673ffffffffffffffffffffffffffffffffffffffff1681526020019081526020016000206040518060800160405290816000820154815260200160018201548152602001600282015481526020016003820160009054906101000a900460ff16151515158152505090506105ca85610ed5565b610609576040517f08c379a000000000000000000000000000000000000000000000000000000000815260040161060090611333565b60405180910390fd5b600260008673ffffffffffffffffffffffffffffffffffffffff1673ffffffffffffffffffffffffffffffffffffffff16815260200190815260200160002060009054906101000a900460ff16610695576040517f08c379a000000000000000000000000000000000000000000000000000000000815260040161068c906113c5565b60405180910390fd5b83600160003373ffffffffffffffffffffffffffffffffffffffff1673ffffffffffffffffffffffffffffffffffffffff16815260200190815260200160002060008773ffffffffffffffffffffffffffffffffffffffff1673ffffffffffffffffffffffffffffffffffffffff168152602001908152602001600020600001541015610757576040517f08c379a000000000000000000000000000000000000000000000000000000000815260040161074e90611457565b60405180910390fd5b61077661076382610e35565b8260400151610ea990919063ffffffff16565b816040018181525050428160200181815250506107a0848260000151610ebf90919063ffffffff16565b8160000181815250508273ffffffffffffffffffffffffffffffffffffffff1663a9059cbb33866040518363ffffffff1660e01b81526004016107e4929190611144565b6020604051808303816000875af1158015610803573d6000803e3d6000fd5b505050506040513d601f19601f8201168201806040525081019061082791906111a5565b50838261083491906114a6565b8373ffffffffffffffffffffffffffffffffffffffff166370a08231306040518263ffffffff1660e01b815260040161086d9190611264565b602060405180830381865afa15801561088a573d6000803e3d6000fd5b505050506040513d601f19601f820116820180604052508101906108ae9190611294565b146108ee576040517f08c379a00000000000000000000000000000000000000000000000000000000081526004016108e59061154c565b60405180910390fd5b7f4f76add759a8fd6ce3c9e34f97784a19d0619acf69408d92a3966e25a091f5c63386866040516109219392919061156c565b60405180910390a150505060016000819055505050565b6000309050600083905060008173ffffffffffffffffffffffffffffffffffffffff166370a08231846040518263ffffffff1660e01b815260040161097d9190611264565b602060405180830381865afa15801561099a573d6000803e3d6000fd5b505050506040513d601f19601f820116820180604052508101906109be9190611294565b90506000600160003373ffffffffffffffffffffffffffffffffffffffff1673ffffffffffffffffffffffffffffffffffffffff16815260200190815260200160002060008773ffffffffffffffffffffffffffffffffffffffff1673ffffffffffffffffffffffffffffffffffffffff1681526020019081526020016000206040518060800160405290816000820154815260200160018201548152602001600282015481526020016003820160009054906101000a900460ff1615151515815250509050610a8d86610ed5565b610acc576040517f08c379a0000000000000000000000000000000000000000000000000000000008152600401610ac390611333565b60405180910390fd5b600081600001511115610b08576000610ae482610e35565b9050610afd818360400151610ea990919063ffffffff16565b826040018181525050505b610b1f858260000151610ea990919063ffffffff16565b81600001818152505042816020018181525050600181606001901515908115158152505080600160003373ffffffffffffffffffffffffffffffffffffffff1673ffffffffffffffffffffffffffffffffffffffff16815260200190815260200160002060008873ffffffffffffffffffffffffffffffffffffffff1673ffffffffffffffffffffffffffffffffffffffff16815260200190815260200160002060008201518160000155602082015181600101556040820151816002015560608201518160030160006101000a81548160ff021916908315150217905550905050600260008773ffffffffffffffffffffffffffffffffffffffff1673ffffffffffffffffffffffffffffffffffffffff16815260200190815260200160002060009054906101000a900460ff16610cab576001600260008873ffffffffffffffffffffffffffffffffffffffff1673ffffffffffffffffffffffffffffffffffffffff16815260200190815260200160002060006101000a81548160ff0219169083151502179055505b8273ffffffffffffffffffffffffffffffffffffffff166323b872dd3386886040518463ffffffff1660e01b8152600401610ce89392919061156c565b6020604051808303816000875af1158015610d07573d6000803e3d6000fd5b505050506040513d601f19601f82011682018060405250810190610d2b91906111a5565b508482610d3891906115a3565b8373ffffffffffffffffffffffffffffffffffffffff166370a08231866040518263ffffffff1660e01b8152600401610d719190611264565b602060405180830381865afa158015610d8e573d6000803e3d6000fd5b505050506040513d601f19601f82011682018060405250810190610db29190611294565b14610df2576040517f08c379a0000000000000000000000000000000000000000000000000000000008152600401610de99061154c565b60405180910390fd5b7faa117ad4674eee5b397e2e7785a9b7daf743d487f5c13348077c206d3d0c58d3338787604051610e259392919061156c565b60405180910390a1505050505050565b600080610e63610e10610e55856020015142610ebf90919063ffffffff16565b610ee890919063ffffffff16565b90506000610e7d6103e86019610ee890919063ffffffff16565b90506000846000015182610e9191906115f9565b90508083610e9f91906115f9565b9350505050919050565b60008183610eb791906115a3565b905092915050565b60008183610ecd91906114a6565b905092915050565b600080823b905060008111915050919050565b60008183610ef69190611682565b905092915050565b600080fd5b6000819050919050565b610f1681610f03565b8114610f2157600080fd5b50565b600081359050610f3381610f0d565b92915050565b600073ffffffffffffffffffffffffffffffffffffffff82169050919050565b6000610f6482610f39565b9050919050565b610f7481610f59565b8114610f7f57600080fd5b50565b600081359050610f9181610f6b565b92915050565b60008060408385031215610fae57610fad610efe565b5b6000610fbc85828601610f24565b9250506020610fcd85828601610f82565b9150509250929050565b60008060408385031215610fee57610fed610efe565b5b6000610ffc85828601610f82565b925050602061100d85828601610f24565b9150509250929050565b600082825260208201905092915050565b7f5265656e7472616e637947756172643a207265656e7472616e742063616c6c00600082015250565b600061105e601f83611017565b915061106982611028565b602082019050919050565b6000602082019050818103600083015261108d81611051565b9050919050565b7f4c612064656d616e646520657374207375706572696575722061206c6120726560008201527f636f6d70656e736520646973706f6e69626c652e000000000000000000000000602082015250565b60006110f0603483611017565b91506110fb82611094565b604082019050919050565b6000602082019050818103600083015261111f816110e3565b9050919050565b61112f81610f59565b82525050565b61113e81610f03565b82525050565b60006040820190506111596000830185611126565b6111666020830184611135565b9392505050565b60008115159050919050565b6111828161116d565b811461118d57600080fd5b50565b60008151905061119f81611179565b92915050565b6000602082840312156111bb576111ba610efe565b5b60006111c984828501611190565b91505092915050565b7f4c65207472616e7366657220647520746f6b656e204643546f6b656e206e652060008201527f666f6e6374696f6e6e6520706173202100000000000000000000000000000000602082015250565b600061122e603083611017565b9150611239826111d2565b604082019050919050565b6000602082019050818103600083015261125d81611221565b9050919050565b60006020820190506112796000830184611126565b92915050565b60008151905061128e81610f0d565b92915050565b6000602082840312156112aa576112a9610efe565b5b60006112b88482850161127f565b91505092915050565b7f4c27616464726573736520666f75726e6972206e276573742070617320756e2060008201527f636f6e7472616374202100000000000000000000000000000000000000000000602082015250565b600061131d602a83611017565b9150611328826112c1565b604082019050919050565b6000602082019050818103600083015261134c81611310565b9050919050565b7f4e6f7573206e2761766f6e732070617320646520746f6b656e20656e2070726f60008201527f76656e616e6365206465206c27616464726573736520666f75726e6965000000602082015250565b60006113af603d83611017565b91506113ba82611353565b604082019050919050565b600060208201905081810360008301526113de816113a2565b9050919050565b7f4c65206d6f6e74616e742065737420737570657269657572206120766f74726560008201527f20736f6c64650000000000000000000000000000000000000000000000000000602082015250565b6000611441602683611017565b915061144c826113e5565b604082019050919050565b6000602082019050818103600083015261147081611434565b9050919050565b7f4e487b7100000000000000000000000000000000000000000000000000000000600052601160045260246000fd5b60006114b182610f03565b91506114bc83610f03565b9250828210156114cf576114ce611477565b5b828203905092915050565b7f4c65207472616e7366657220647520746f6b656e204552433230206e6520666f60008201527f6e6374696f6e6e65207061732021000000000000000000000000000000000000602082015250565b6000611536602e83611017565b9150611541826114da565b604082019050919050565b6000602082019050818103600083015261156581611529565b9050919050565b60006060820190506115816000830186611126565b61158e6020830185611126565b61159b6040830184611135565b949350505050565b60006115ae82610f03565b91506115b983610f03565b9250827fffffffffffffffffffffffffffffffffffffffffffffffffffffffffffffffff038211156115ee576115ed611477565b5b828201905092915050565b600061160482610f03565b915061160f83610f03565b9250817fffffffffffffffffffffffffffffffffffffffffffffffffffffffffffffffff048311821515161561164857611647611477565b5b828202905092915050565b7f4e487b7100000000000000000000000000000000000000000000000000000000600052601260045260246000fd5b600061168d82610f03565b915061169883610f03565b9250826116a8576116a7611653565b5b82820490509291505056fea2646970667358221220702619460a7774010d7ba4e21eec52554db3b1317010f71d77be04b15dd5396564736f6c634300080b0033",
  "immutableReferences": {},
  "source": "// SPDX-License-Identifier: MIT\n\npragma solidity ^0.8.0;\n\nimport \"./FCToken.sol\";\nimport \"./Crowdsale.sol\";\nimport \"@openzeppelin/contracts/utils/Address.sol\";\nimport \"@openzeppelin/contracts/utils/math/SafeMath.sol\";\nimport \"@openzeppelin/contracts/security/ReentrancyGuard.sol\";\n\n\ncontract Stacking is ReentrancyGuard\n{\n    using SafeMath for uint256;\n\n    mapping(address => mapping( address => Stack)) private _lockedToken;\n    mapping(address => bool) private contracts;\n    uint256     private constant _INTEREST_PERIOD = 1 hours;\n    uint256     private constant _INTEREST_VALUE = 25;\n    Crowdsale   private crowdsale;\n    FCToken     private fcToken;\n\n    struct Stack\n    {\n        uint256 amount;\n        uint256 lastAction;\n        uint256 reward;\n        bool    exist;\n    }\n\n    event locking(address stacker, address tokenAddress, uint256 amount);\n    event unlocking(address stacker, address tokenAddress, uint256 amount);\n    event claiming(address stacker, uint256 amount);\n\n    constructor(FCToken _instanceFC, address _addressCrowdsale)\n    {\n        fcToken     = _instanceFC;\n        crowdsale   = Crowdsale(_addressCrowdsale);\n    }\n\n\n    function locked(address _tokenAddress, uint256 _amount) external\n    {\n        address stackAddress            = address(this);\n        ERC20   ERC20Token              = ERC20(_tokenAddress);\n        uint256 balanceBeforeTransfer   = ERC20Token.balanceOf(stackAddress);\n        Stack   memory stack            = _lockedToken[msg.sender][_tokenAddress];\n\n\n        require(Address.isContract(_tokenAddress), \"L'addresse fournir n'est pas un contract !\");\n\n        if (stack.amount > 0)\n        {\n            uint256 rewardBeforeDepot = calculateReward(stack);\n            stack.reward = stack.reward.add(rewardBeforeDepot);\n        }\n\n        stack.amount        = stack.amount.add(_amount);\n        stack.lastAction    = block.timestamp;\n        stack.exist         = true; \n\n        _lockedToken[msg.sender][_tokenAddress] = stack;\n        \n        if (!contracts[_tokenAddress])\n        {\n            contracts[_tokenAddress] = true;\n        }\n        ERC20Token.transferFrom(msg.sender, stackAddress, _amount);\n        require(ERC20Token.balanceOf(stackAddress) == (balanceBeforeTransfer + _amount), \"Le transfer du token ERC20 ne fonctionne pas !\");\n\n        \n        emit locking(msg.sender, _tokenAddress, _amount);\n    }\n\n\n    function calculateReward(Stack memory stack) private view returns(uint256)\n    {\n        uint256 stackingPeriod = block.timestamp.sub(stack.lastAction).div(_INTEREST_PERIOD);\n        uint256 interest_percentage = _INTEREST_VALUE.div(1000);\n        uint256 rewardByHours = interest_percentage * stack.amount;\n\n        return(stackingPeriod * rewardByHours);\n    }\n\n\n    function unlocked(address _tokenAddress, uint256 _amount) external nonReentrant()\n    {\n        ERC20   ERC20Token              = ERC20(_tokenAddress);\n        uint256 balanceBeforeTransfer   = ERC20Token.balanceOf(address(this));\n        Stack   memory stack            = _lockedToken[msg.sender][_tokenAddress];\n\n        require(Address.isContract(_tokenAddress), \"L'addresse fournir n'est pas un contract !\");\n        require(contracts[_tokenAddress], \"Nous n'avons pas de token en provenance de l'addresse fournie\");\n        require(_lockedToken[msg.sender][_tokenAddress].amount >= _amount, \"Le montant est superieur a votre solde\");\n\n        stack.reward        = stack.reward.add(calculateReward(stack));\n        stack.lastAction    = block.timestamp;\n        stack.amount        = stack.amount.sub(_amount);\n\n        ERC20Token.transfer(msg.sender, _amount);\n        require(ERC20Token.balanceOf(address(this)) == (balanceBeforeTransfer - _amount), \"Le transfer du token ERC20 ne fonctionne pas !\");\n\n        emit unlocking(msg.sender, _tokenAddress, _amount);\n    }\n\n\n    function claimed(uint256 _amount, address _tokenAddress) external nonReentrant()\n    {\n        Stack memory stack  = _lockedToken[msg.sender][_tokenAddress];\n        stack.reward        = stack.reward.add(calculateReward(stack));\n        stack.lastAction    = block.timestamp;\n\n        require(stack.reward >= _amount, \"La demande est superieur a la recompense disponible.\");\n        require(fcToken.transfer(msg.sender, stack.reward), \"Le transfer du token FCToken ne fonctionne pas !\");\n\n        stack.reward = stack.reward.sub(_amount);\n        _lockedToken[msg.sender][_tokenAddress] = stack;\n\n        emit claiming(msg.sender, _amount);\n    }\n}",
  "sourcePath": "/home/jg/dev/tuto/alyra/Stacking/contracts/Stacking.sol",
  "compiler": {
    "name": "solc",
    "version": "0.8.11+commit.d7f03943.Emscripten.clang"
  },
  "schemaVersion": "3.4.3",
  "updatedAt": "2021-12-27T11:03:35.726Z",
  "devdoc": {
    "kind": "dev",
    "methods": {},
    "version": 1
  },
  "userdoc": {
    "kind": "user",
    "methods": {},
    "version": 1
  }
}